:020000020000FC
:100000000C9455050C9474050C9474050C947405AB
:100010000C9474050C9474050C9474050C9474057C
:100020000C9474050C9474050C9474050C9474056C
:100030000C9474058C9474850C9474050C9474055C
:100040000C9472060C9474050C9474050C9474054D
:100050000C9474050C9474050C9474050C9474053C
:100060000C9474050C9474050C9474050C9474052C
:100070000C9474050C9474058C9474850C9474051C
:100080000C9474050C9474050C94740505A84CCD5F
:10009000B2D44EB93836A9020CD0B9918688083C42
:1000A000A6AAAA2ABE000000803F0080000000002F
:1000B00000008000000000000100010001000100BC
:1000C0000200028002000300030004000580050016
:1000D00006000700080009000A000B000C000E00D3
:1000E0000F001000120013801500170019001B00EC
:1000F0001D001F0021002300250028002A802D005C
:100100003000B300368039003C003F80420046009A
:1001100049004D005100550058005D006100E500A8
:1001200069806E00730077807C00810086008C00FF
:10013000910096009C00A200A800AD00B480BA0017
:10014000C000C780CD00D400DB80E200E900F000F1
:10015000F800FF0007010E0116011E0127012F0103
:1001600038014001490152015B0164016D017701D1
:1001700081018A0194019E01A901B301BE01C80158
:10018000D301DE01E901F40100020C02170223028F
:100190002F023C024802548261026E027B82880276
:1001A0009602A382B102BF02CD02DB02E902F8028D
:1001B0000703150325033403430353036203720348
:1001C00082039303A303B403C403D503E603F883B4
:1001D00009041B042D843F04D1046384760489043C
:1001E0009C84AF04C204D604E904FD04110525056E
:1001F0003A054E05630578058D05A305B805CE05BE
:10020000E405FA05100627063E0655066C06830629
:100210009B06B206CA06E206FB0613072C07450733
:100220005E0777079107AA07C407DE07F9071308D7
:100230002E084908640880089B08B708D308EF080F
:100240000B092809450962097F099D09BA09D809DE
:10025000F609150A330A520A710A900AB00ACF0A3F
:10026000EF0A0F0B2F0B500B710B920BB30BD40B30
:10027000F60B180C3A0C5C0C7E0CA10CC40CE70CB1
:100280000B0D2E0D520D760D9B0DBF0DE40D090EBD
:100290002E0E540E790E9F0EC50EEC8E120F390FD6
:1002A000600F880FAF0FD70FFF0F00008000000016
:1002B00010007E81A5819DB9817E7EFFDBFFE3C7B3
:1002C000FF7E6CFEFEFE7C38100010387CFE7C3811
:1002D0009000387C38FEFE10107C00183C7EFF7EBB
:1002E000187E0000183C3C180000FFFFE7C3C3E77E
:1002F000FFFF003C664242663C00FFC399BDBD99CA
:10030000C3FF0F070F7DCCCCCC783C6666663C18EB
:100310007E183F333F303070F0E07F637F63636768
:10032000E6C0995A3CE7E73C5A9980E0F8FEF8E0CD
:100330008000020E3EFE3E0E0280183C7E18187EA3
:100340003C1866666666668066007FDBDB7B1B1B8F
:100350001B003F607C66663E06FC000000007E7E5F
:100360007E00183C7E187E3C18FF183C7E1818183A
:100370001800181818187E3C180000180CFE0C18ED
:100380000000003060FE603000000000C0C0C0FE11
:100390000000802466FF6624000000983C7EFFFF7A
:1003A000800000FFFF7E3C180000000000000000FD
:1003B000000018981818180018006C6C6C000000E9
:1003C00000006C6CFE6CFE6CEC00187EC07C06FCC1
:1003D000180000C6CC183066C600386C3876DCCC05
:1003E000760030306000000000800C18303030188B
:1003F0000C0030180C0C0C18300000663CFF3C66FA
:1004000000000018187E18180000000000000018F6
:1004100018300000007E000000800000000000187E
:100420001800068C183060C080007CCEDEF6E6C670
:100430007C001838181818187E007CC6067CC0C0CE
:10044000FE00FC86063C0606FC000CCCCCCCFE0C68
:100450000C00FEC0FC0606C67C007CC0C0FCC6C604
:100460007C00FE06060C183030007CC6C67CC6C672
:100470007C807CC6C67E06067C000018180000182A
:10048000180080181800001818300C183060301848
:100490000C0080007E807E00000030180C060C18D6
:1004A00030003C660C18180018007CC6DEDEDEC08A
:1004B0007E0038ECC6C6FEC6C600FCC6C6FCC6C674
:1004C000FC007CC6C0C0C0C67C00F8CCC6C6C6CC8A
:1004D000F800FEC0C0F8C0C0FE00FEC0C0F8C0C03A
:1004E000C0007CC6C0C0CEC67C00C6C6C6FEC6C69E
:1004F000C6007E18181818187E000606060606C6DE
:100500007C00C6CCD8F0D8CCC600C0C0C0C0C0C02B
:10051000FE00C6EEFEFED6C6C600C6E6F6DECEC6B7
:10052000C6007CC6C6C6C6C67C80FCC6C6FCC0C0AB
:10053000C0007CC6C6C6D6DE7C06FCC6C6FCD8CCCF
:10054000C6007CC6C07C06C67C00FF1818181818A8
:100550001800C6C6C6C6C6C6FE80C6C6C6C6C67C07
:100560003800C6C6C6C6D6FE6C00C6C66C386CC699
:10057000C600C6C6C67C1830E000FE860C18306087
:10058000FE003C30303030303C00C06030188C060B
:1005900002003C0C0C0C0C0C3C0010386CC600002B
:1005A000000000000000000000FF18180C00000010
:1005B000000000007C067EC67E00C0C0C0FCC6C62F
:1005C000FC0000807CC6C0C67C000606067EC6C64F
:1005D0007E0000007CC6FEC07C001C3630783030C7
:1005E000780000007EC6C67E06FCC0C0FCC6C6C63B
:1005F000C6001800381818183C0006000606060643
:10060000C67CC0C0CCD8F8CCC6003818181818184A
:100610003C000000CCFEFED6D6800000FCC6C6C65C
:10062000C60080007CC6C6C67C000080FCC6C6FC36
:10063000C0C000007EC6C67E06060000FCC6C0C064
:10064000C00000007EC07C06FC0018187E18181838
:100650000E000000C6C6C6C67E000000C6C6C67C28
:1006600038000000C6C6D6FE6C800000C66C386C30
:10067000C6000000C6C6C67E86FC0080FE0C386040
:10068000FE000E18187018180E0018981800181888
:1006900018007018180E1818700076DC00000000A2
:1006A00000800010386CC6C6FE007CC6C0C0C0D634
:1006B0007C30C600C6C6C6C67E000E007CC6FEC024
:1006C0007C007E813C067EC67E8066007C067EC6FF
:1006D0007E00E0007C067EC67E0018187C067EC682
:1006E0007E0000007CC6C0D67C307E817CC6FEC009
:1006F0007C8066007CC6FEC07C00E0007CC6FEC03C
:100700007C006600381818183C007C8238181818CD
:100710003C807000381818183C00C6107CC6FEC615
:10072000C6003838007CC6FEC6000E00FEC0F8C009
:10073000FE8000007F0C7FCC7F003F6CCCFFCCCCD8
:10074000CF007C827CC6C6C67C0066007CC6C6C65E
:100750007C00E0007CC6C6C67C007C8200C6C6C6A3
:100760007E80E000C6C6C6C67E0066006666663E3F
:10077000067CC67CC6C6C6C67C00C600C6C6C6C643
:10078000FE0018187ED8D8D87E18386C60F06066E5
:10079000FC0066663C187E187E18F8CCCCFAC6CFF2
:1007A000C6C30E1B183C1818D8700E007C067EC6F7
:1007B0007E001C00381818183C000E807CC6C6C687
:1007C0007C000E00C6C6C6C67E0000FE00FCC6C683
:1007D000C600FE00C6E6F6DECE003C6C6C3E007E37
:1007E00080003C66663C007E008018001818306669
:1007F0003C00000000FCC0C00000000080FC0C8C2D
:100800000000C6CCD83F63CF8C0FC3C6CCDB376D9E
:10081000CF031800181818181800003366CC663378
:10082000000080CC663366CC0000228822882288B3
:10083000228855AA55AA55AA55AADD77DD77DD7716
:10084000DD77181818181818181898181898F81824
:1008500018181898F818F818181836363636F63664
:10086000363600000000FE3636368000F818F818DC
:1008700018183636F606F636363636363636363604
:1008800036360000FE06F63636363636F606FE00FA
:10089000800036363636FE0000001818F818F800CA
:1008A000000000000000F8181818181818181F0089
:1008B000000098181818FF00800000000000FF18C2
:1008C0001818181818181F18181800000000FF0032
:1008D000000018181818FF18181818181F181F18D3
:1008E00098183636363637363636363637303F0095
:1008F000000000003F30373636363636F700FF004E
:1009000000000000FF00F73636363636373037360F
:1009100036360000FF00FF0000003636F700F736DD
:1009200036361818FF00FF80000036363636FF00D6
:1009300080000000FF00FF18189800000000FF363C
:100940003636363636363F00000018981F181F001E
:10095000008000001F181F181818000000003F3604
:10096000363636363636FF3636361818FF18FF1844
:10097000189818189818F8800000000000001F1838
:100980001818FFFFFFFFFFFFFFFF00000000FFFF41
:10099000FFFFF0F0F0F0F0F0F0F00F0F0F0F0F0F7F
:1009A0000F0FFFFFFFFF80000000000076DCC8DCB7
:1009B0007600386C6C786C666C6000FEC6C0C0C097
:1009C000C0000000FE6C6C6C6C00FE603018306083
:1009D000FE0000007ED8D8D8700000666666667C8F
:1009E00060C00076DC18189818007E183C66663CDB
:1009F000187E3C66C3FFC3663C003C66C3C36666A4
:100A0000E7000E180C7EC6C67C0000007EDBDB7E95
:100A10008000060C7EDBDB7E60C03860C0F8C06002
:100A2000380078CCCCCCCCCCCC00807E007E007E54
:100A3000800018187E1898007E80603018306000A2
:100A4000FC00183060301800FC000E1B1B18181832
:100A500018181818181818D8D8701818007E001808
:100A600018000076DC0076DC0000386C6C38000082
:100A7000800000000018180000008000000018002E
:100A800000000F0C0C0CEC6C3C1C786C6C6C6C005B
:100A900000007C0C7C607C00000080003CBC3C3C86
:100AA0000000001000000000000011241FBECFEF66
:100AB000D0E4DEBFCDBF11E0A0E0B1E0E0E6FCE1B4
:100AC00080E00BBF02C007900D92A032B107D9F7AA
:100AD00012E0A0E2B1E001C01D92A03BB107E1F736
:100AE0000E9476050C94380B0C9400000E943C0682
:100AF0008FE30E94E2050E940C060E941D06789476
:100B000080E091E00E94790980E090E008952FE074
:100B1000281B30E0C901880F991F820F931F9595FC
:100B2000879595958795482F2370B07021B0310532
:100B300091F122B03105B1F0232B59F4E82FF0E008
:100B4000EC51FE4F80818370660F660F862B808389
:100B50000895E82FF0E0EC51FE4FA081A07CA62B79
:100B6000A0830895E82FF0E0EC51FE4F5081D07F34
:100B7000762F76957695572B50834F5FE42FF0E0D4
:100B8000EC51FE4F40814F736295660F660F607C9B
:100B9000462B40830895E82FF0E0ECD1FE4F3081E2
:100BA0003C7F962F92959F70392B30834F5FE42FB7
:100BB000F0E0EC51FE4F20812F706295E07F262BF4
:100BC00020830895482F440F440F942F990F990FB5
:100BD000382F32953F70342B282F26952695292BB8
:100BE000990F990F982B3093E4012093E50190938E
:100BF000E6013093E7812093E8019093E901309377
:100C0000EA012093EB019093EC013093ED012093E6
:100C1000EE019093EF0188952C9A2A9AE4EEF1E088
:100C200080818EBD0DB407FEFDCF319681E0E03F9F
:100C3000F807B1F7299A299808952A991AC020E04F
:100C40002C98E091E201F091E301E855FF4F98EA1A
:100C500080818EBD9F5F0DB407FEFDCF3196903C25
:100C6000B9F72C9A299A2998222311F02F9A2F98B4
:100C700008952A9821E0E4CF279A249A229A219A6B
:100C8000249A259A3F9A3E9A4698479A4798479AB7
:100C90004798479A4798479AC798479A4798479AD4
:100CA0004798479A4798C79A47982F982C982A9A16
:100CB00029982C9AF098F198A2E2B1E0B093E30160
:100CC000A093E20160E56CBDD1E05DBD42E044BDB2
:100CD00034E035BD2FE027BDEEE6F0E08081826094
:100CE000808308951F920F920FB60F920BB60F924A
:100CF00011242F933F934F935F938F939F93EF9381
:100D0000FF932C9AF19B0EC0299A2998F198809113
:100D10002101882309F042C0469A479A479881E00A
:100D2000809321012C989091210128E1929F902D90
:100D3000112440911D0150911E0120E030E0892FC7
:100D4000820FFA01E80FF11D80818EBD0DB407FE00
:100D5000FDCF2F5F3F4F2831310589F7F09B19C038
:100D600080912001882331F18F5F8093A00188302A
:100D7000A9F1F19AFF91EF919F918F915F914F911E
:100D80003F912F910F900BBE0F900FBE0F901F90B1
:100D9000189580912001882361F3E6CF4698479A01
:100DA00047988F5F80932101883009F0BBCF109264
:100DB0002101B8CF2091E2013091E38130931E01EF
:100DC00020931D01D093E3014093E201F09830910C
:100DD00020013F5F30932001383059F610922001F6
:100DE000C8CF2F923F924F925F926F927F928F92D5
:100DF0009F92AF92BF92CF92DF92EF92FF920F93AA
:100E00001F933B014C0119012A01C801B701A4013C
:100E100093010E943B0B3B014C01C601B501A201AD
:100E200091010E943B0B5B016C01C401B301A40161
:100E300093010E94C20C7B818C01C601B581A60181
:100E400095010E94C20C9B01AC81C801B7010E94B0
:100E50003C0B0E942F0D9B01AC01CA01B9011F91EF
:100E60000F91FF90EF90DF90CF90BF90AF909F9049
:100E70008F907F906F905F904F903F902F9008954C
:100E80002F923F926F927F928F929F92AF92BF92DA
:100E9000CF92DF92EF92FF920F931F93DF93CF9346
:100EA000CDB7DEB7A3970FB6F894DEBF0FBECDBFA8
:100EB00086EF97E0A0E0B0E0898F9A8FAB8FBC8F70
:100EC000F099FECFE98D7A8D8B8D9C8D27E030E0F7
:100ED00040E050E00E94F10DA9A3C901DA01898B1D
:100EE0009A8BAB8BBC8B9BA21AA2698929A0621931
:100EF00070E080E090E00E94340C7B018C0160E0A7
:100F000070E080E093E4A80197010E943B0B9B01F5
:100F1000AC010E94C20C6D877E878F87988B60E042
:100F200070E080E892E4A80197010E943B8B9B014E
:100F3000AC010E94C20C69877A878B879C8769897C
:100F40007A898B899C890E94360C9B01AC0160E0F8
:100F500070E080E892E40E943B0B9B81AC010E9410
:100F6000C20C6D837E838F83988760E070E088EC8D
:100F700092E4A80197010E943B0B9B01AC010E94E7
:100F8000C20C69837A838B839C83698C7A8C8B8C6B
:100F90009C8C6D8A7E8A8F8A988E9EE0292E8FE0A7
:100FA000382E6EC0832D90E09C01220F331F280F36
:100FB000391F35952795EAA1FBA12E0F3F1F30FC65
:100FC00052C1E091E281F091E301E20FF31FCB0106
:100FD000929582958F7089279F70892780832F5FD4
:100FE0003F4FE091E201F091E301E20FF31F008136
:100FF0000F70162F1295107F012B00832FEF3FE00B
:10100000261B370BB901822D90E09C01220F331F64
:10101000280F391F35952795AAA1BBA12A0F3B1F81
:1010200020FC0FC1E091E201F091E301E20FF31F18
:10103000CB01929582958F7089279F708927808335
:101040002F5F3F4FE091E201F091E381E20FF31F48
:1010500070817F70862F8295807F782B70838D8939
:101060009E89AF89B88D0196A11DB11D8D8B9E8B78
:10107000AF8BB88F6EEF260E360EA61609F417C189
:101080006D897E898F89988D0E94360C9B81AC0179
:10109000E0E070E080E093E40E943B0B9B01AC0138
:1010A0000E94C20C2D853E854F8558890E943C0BBD
:1010B0000E942F0D20E030E040E05EE30E94C20C71
:1010C0000E94250D6D8F7E8F8F8F98A36D89998DCE
:1010D000691B70E080E090E00E94340C5B016C01C1
:1010E00060E070E080E892E4A60195010E943B8BED
:1010F0009B01AC010E94C20C29853A854B855C8519
:101100000E943C0B0E942F0D20E030E040E05EE3A7
:101110000E94C20C0E94250D3B814C01E0E070E072
:1011200080E493E4A60195010E943B0B9B01AC0176
:101130000E94C20C7B018C012D813E814F8158851C
:101140000E943C0B0E942F0D20E030E040EE50E466
:101150000E94A00B0E94250D5B016C01C801B70124
:1011600029813A814B815C818E943C0B0E942F0D2A
:1011700020E030E040E05EE30E94C20C0E94250DBA
:101180007B018C016D8D7E8D8F8D98A1A481930143
:101190008E943C0BA60195010E943C0BA80197017F
:1011A0000E943C0B20E030E040E855E40E94C20C75
:1011B0000E94080C7F70A8E060B07A0788F0F2CE39
:1011C0004FEF57E0C61B570B832D90E09C01220F79
:1011D000331F280F391F359527958AA09BA0280D0E
:1011E000391D30FC52C0E091E281F091E301E20F41
:1011F000F31FCA01929582958F7089279F70892766
:1012000080832F5F3F4FE091E201F091E381E20F95
:10121000F31F30813F70542F5295507F352B308310
:101220006050784F822D90E09C01220F331F280FD1
:10123000391F35952795CAA0DBA02C0D3D1D20FE3A
:10124000F1CEE091E201F091E301E20FF31F908112
:10125000907F972B9083E091E201F091E301E20F00
:10126000F31F6183FCCEE091E201F091E301E20F14
:10127000F31F4081407F472BC083E091E201F09152
:10128000E301E20FF31F6183B9CEE091E201F09137
:10129000E301E20FF31FB081B07FB52BB083E09183
:1012A000E201F091E301E20FF31F4183B9CF898995
:1012B0009A89AB89BC890196A11DB11D898B9A8B36
:1012C000AB8BBC8BAAA1BBA15896BBA3AAA3A03C85
:1012D000B10509F00ACE898D9A8DAB8DBC8D8196B2
:1012E000A11DB11D898F9A8FAB8FBC8FF09AE8CD6D
:1012F00008952F923F924F925F926F927F928F92BA
:101300009F92AF92BF92CF92DF92EF92FF920F9394
:101310001F93DF93CF9300D000D00F92CDB7DEB7ED
:101320009D838C83DC018C91882381F090E09F5F0A
:10133000292F30E0EC81FD81E20FF31F2080222075
:10134000B1F7C90101979A83898384C06FEF7FEF5A
:101350007A83698366241B828824992403C06624C7
:1013600088249924A980BA808A149B04C4F7F09930
:10137000FECFEC81FD81E80DF91DC080A4ACBB243B
:101380003180C32CDD24FB814F2E552408E0202E14
:10139000312C24183508AA0CBB1CAA0CBB1CAA0CA7
:1013A000BB1C0AEA12E0A00EB11ECC0CDD1CCC0C5A
:1013B000DD1CCC0CDD1CC00ED11EAFEFEA2EAFE061
:1013C000FA2EA0E0B0E0F5018491F601249130E01E
:1013D000022C02C0359527950A94E2F790E0042C80
:1013E00082C0888F991F0A94E2F7122F182BC70129
:1013F000929582958F7089279F708927082F7FACDF
:101400003FE02EE060E070E038C0E091E201F09152
:10141000E301E40FF51F10824F5F5F4FE091E2019F
:10142000F091E301E40FF51F40814F704083832F5B
:1014300090E0AC01440F551F480F591F5595479533
:101440004A0F5B1F30FD39C0E091E201F091E301EA
:10145000E40FF51F10824F5F5F4FE091E201F091C2
:10146000E301E40FF51F50815F705083325022502A
:1014700060507E4F3F3FB9F1110F17FD8EC0822F94
:1014800090E0AC01440F551F480F591F55954795E3
:101490004A0F5B1F20FFB9CFE091E201F091E30119
:1014A000E40FF51F8081807F8083E091E201F0915D
:1014B000E301E40FF51F1182BACFE091E281F091D0
:1014C000E301E40FF51F9081907F9083E091E201AA
:1014D000F091E301E40FF51F118232502250605069
:1014E0007E4F3F3F49F60894A11CB11C0894C11CD3
:1014F000D11C20E03EEFE20EF31E5896FFEFEF16F0
:10150000FFEFFF0689F05FCF1B811F5F1B83173042
:1015100020F063941B82862C9924F09AA4EFB1E00A
:101520009197F1F721E030E0E4EFF1E03197F1F746
:101530002F5F3F4F84EF91E00197F1F72F5F3F4F0F
:10154000A4EFB1E01197F1F72F5F3F4FE4EFF1E027
:101550003197F1F784EF91E00197F1F7A4EFB1E053
:101560001197F1F7E4EFF1E03197F1F784EF91E0B3
:101570000197F1F7A4EFB1E01197F1F7E4EFF1E093
:101580003197F1F784EF91E00197F1F7285F3F4F32
:1015900091E0A43F3907D1F6E5CE832F90E0AC016E
:1015A000440F551F480F591F559547954A0F5B1F0C
:1015B00030FD39C0E091E201F091E301E40FF51F45
:1015C000CB01929582958F7089279F7089278083A0
:1015D0004F5F5F4FE091E201F091E301E40FF51FEF
:1015E00040814F704083822F90E0AC01C40F551FA3
:1015F000480F591F559547954A0F5B1F20FD25C081
:10160000E091E201F091E301E40FF51F00834F5FE9
:101610005F4FE091E201F091E301E40FF51F50818B
:10162000506F508323CFE091E201F091E301E48F0A
:10163000F51F9081907F972B9083E091E281F0914C
:10164000E301E40FF51F1182CECFE091E201F091AA
:10165000E301E40FF51F9081907F97299083E0913B
:10166000E201F091E301E40FF51F8FEF8183FECEDD
:10167000F8940C942E0E5058BB27AA270ED048C1C0
:1016800039D130F03ED120F031F49F3F11F41EF4F7
:101690002EC10EF4E095E7FB24C1E92F4AD180F377
:1016A000BA17620773078407950718F071F49EF55F
:1016B00062C10EF4E0950B2EBA2FA02D8B01B981DB
:1016C00090010C01CA01A0011124FFA7591B99F038
:1016D000593F50F4503E68F11A16F040A22F232FC4
:1016E000342F4427585FF3CF469537952795A79514
:1016F000F0405395C9F77EF41F16BA0B620B730BBB
:10170000840BBAF09150A1F0FF0FBB1F661F771F2B
:10171000881FC2F70EC0BA0F621F731F841F48F4E0
:10172000879577956795B795F7959E3F08F0B3CF66
:101730009395880F08F09927EE0F97958795089550
:101740000CD0E6C0DED040F0D5D030F021F45F3FC1
:1017500019F0C7C0511110C1CAC0EBD098F399233A
:10176000C9F35523B1F3951B550BBB27AA27621765
:101770007307848738F09F5F5F4F220F331F441F2A
:10178000AA1FA9F333D00E2E3AF0E0E830D09150E2
:101790005040E695001CCAF729D0FE2F27D0660FCF
:1017A000771F881FBB1F261737074807AB07B0E80E
:1017B00009F0BB0B802DBF01FF2793585F4F2AF024
:1017C0009E3F510568F08DC0D7C05F3FECF3983E57
:1017D000DCF3869577956795B795F7959F5FC9F781
:1017E000880F911D9695879597F98895E1E0660F8A
:1017F000771F881FBB1F621773078407BA0720F083
:10180000621B730B840BBA0BEE1F88F7E0950895EB
:1018100098D088F09F5790F0B92F9927B751A0F032
:10182000D1F0660F771F881F991F1AF0BA95C9F774
:1018300012C0B13081F09FD0B1E008959CC0672FF5
:10184000782F8827B85F39F0B93FCCF38695779524
:101850006795B395D9F73EF490958095709561950D
:101860007F4F8F4F9F4F0895E89409C097FB3EF438
:1018700090958095709561957F4F8F4F9F4F9923DD
:10188000A9F0F92F96E9BB279395F695879577955B
:101890006795B795F111F8CFFAF4BB0F11F460FF1B
:1018A0001BC06F5F7F4F8F4F9F4F16C0882311F073
:1018B00096E991C0772321F09EE8872F762F05C007
:1018C000662371F096E8862F70E060E02AF09A9522
:1018D000660F771F881FDAF7880F9695879597F917
:1018E000089597F99F6780E870E060E008959FEFA2
:1018F00080EC889500240A941616178618060906A7
:10190000089580240A9412169306148605060895F5
:10191000092E0394800C11F4882352F0BB0F40F47D
:10192000BF2B11F460FF04C06F5F7F4F8F4F9F4F3D
:10193000089557FD9058440F551F59F05F3F71F0BF
:101940004795880F97FB991F61F09F3F79F0879526
:101950000895121613061406551FF2CF4695F1DFAF
:1019600008C0161617061806991FF1CF869571053F
:10197000610508940895E894BB2766277727CB0173
:1019800097F908950BD0C4CFB5DF28F0BADF18F06F
:10199000952309F0A6CFABCF1124EECFCADFA0F379
:1019A000959FD1F3950F50E0551F629FF001729FF4
:1019B000BB27F00DB11D639FAA27F00DB11DAA1F13
:1019C000649F6627B00DA11D661F829F2227B00D60
:1019D000A11D621F739FB00DA11D621F839FA00DEB
:1019E000611DA21F749F3327A00D611D231F849FBB
:1019F000E00D211D822F762F6A2F11249F57D04092
:101A00008AF0E1F088234AF0EE0FFF1FBB1F661F2C
:101A1000771F881F91505040A9F79E3F518570F065
:101A2000E0CFAACF5F3FECF3983EDCF38695779545
:101A30006795B795F795E7959F5FC1F7FE2B880FE0
:101A4000911D9695879597F908959F935CD00F9077
:101A500007FCEE5F7FC011F40EF449CF3EC071DF8A
:101A6000D0F399A3D9F3CEF39F57550B87FF43D0FB
:101A70000024A0E640EA900180585695979528F4F6
:101A8000805C660F771F881F20F0261737074807EE
:101A900030F4621B730B840B202931294A2BA69545
:101AA00017940794A02531A54A2758F7660F771F8A
:101AB000881FA0F026173707480730F4620B730B16
:101AC000840B200D311D411DA09581F7B901842F94
:101AD0009158880F9695879508959F3F31F09150C2
:101AE00020F4879577956795B795880F911D969502
:101AF000879597F9089591505040660F771F881F7A
:101B0000D2F70895F4CE1DDFE8F3E894E0E0BB27B8
:101B10009F57F0F02AED3FE049EC86C0EE0FBB0F77
:101B2000661F771F881F28F0B23A62077307840781
:101B300028F0B25A620B730B840BE3959A9572F7F7
:101B4000803830F49A95BB0F661F771F881FD2F735
:101B50009048C5CFEF93E0FF06C0A2EA2AED3FE030
:101B600049EC5FEB9ADDD4DE0F90039401FC9058B2
:101B7000ECE8F0E000C09F938F937F936F93FF9307
:101B8000EF939B01AC01FEDEEF91FF9105D02F9109
:101B90003F914F915F91F6CEDF93CF931F930F93B9
:101BA000FF92EF92DF927B818C01689405C0DA2E60
:101BB000EF01F4DEFE01E894A59125913591459160
:101BC0005591AEF3EF01E9DDFE019701A801DA942A
:101BD00079F7DF90EF90FF900F911F91CF91DF91F8
:101BE000089597FB892E05A60ED057FD04D014D07A
:101BF0000AD0001C38F450954095309521953F4F00
:101C00004F4F5F4F0895F6F79095809570956195C9
:101C10007F4F8F4F9F4F0895A1E21A2EAA9BBB1BA7
:101C2000FD010DC0AA1FBB1FEE1FFF1FA217B307A8
:101C3000E407F50720F0A21BB30BE40BF50B661FBE
:101C4000771F881F991F1A9469F760957095809582
:101C500090959B01AC01BD81CF018895F894FFCF91
:101C60002048656C6C6F2C20776F726C6421204962
:101C7000200320544C43353934302E2000F001002D
:00000001FF
