:100000000C9443050C9460050C9460050C946005F9
:100010000C9460050C9460050C9460050C946005CC
:100020000C9460050C9460050C9460050C946005BC
:100030000C9460050C9460050C94E0070C9460052A
:100040000C9460050C9460050C9460050C9460059C
:100050000C9460050C9460050C9460050C9460058C
:100060000C9460050C94600505A84CCDB2D44EB933
:100070003836A9020C50B9918688083CA6AAAA2A4B
:10008000BE000000803F00000000000000000000F3
:100090000000000001000100010001000200020058
:1000A000020003000300040005000500060007002D
:1000B000080009000A000B000C000E000F001000E1
:1000C000120013001500170019001B001D001F006F
:1000D00021002300250028002A002D0030003300D5
:1000E000360039003C003F004200460049004D0008
:1000F0005100550058005D006100650069006E0008
:10010000730077007C00810086008C0091009600CF
:100110009C00A200A800AD00B400BA00C000C70057
:10012000CD00D400DB00E200E900F000F800FF00A1
:1001300007010E0116011E0127012F0138014001A0
:10014000490152015B0164016D01770181018A015E
:1001500094019E01A901B301BE01C801D301DE01D2
:10016000E901F40100020C02170223022F023C02F3
:100170004802540261026E027B0288029602A302C8
:10018000B102BF02CD02DB02E902F8020703150348
:10019000250334034303530362037203820393036F
:1001A000A303B403C403D503E603F80309041B0443
:1001B0002D043F0451046304760489049C04AF04B5
:1001C000C204D604E904FD04110525053A054E05CF
:1001D000630578058D05A305B805CE05E405FA0588
:1001E000100627063E0655066C0683069B06B206D9
:1001F000CA06E206FB0613072C0745075E077707CA
:100200009107AA07C407DE07F90713082E08490853
:10021000640880089B08B708D308EF080B09280971
:10022000450962097F099D09BA09D809F609150A25
:10023000330A520A710A900AB00ACF0AEF0A0F0B6A
:100240002F0B500B710B920BB30BD40BF60B180C3E
:100250003A0C5C0C7E0CA10CC40CE70C0B0D2E0DA3
:10026000520D760D9B0DBF0DE40D090E2E0E540E92
:10027000790E9F0EC50EEC0E120F390F600F880F0E
:10028000AF0FD70FFF0F00000000000010007E81AD
:10029000A5819DB9817E7EFFDBFFE3C7FF7E6CFEFB
:1002A000FEFE7C38100010387CFE7C381000387C54
:1002B00038FEFE10107C00183C7EFF7E187E000089
:1002C000183C3C180000FFFFE7C3C3E7FFFF003CFA
:1002D000664242663C00FFC399BDBD99C3FF0F074C
:1002E0000F7DCCCCCC783C6666663C187E183F33DC
:1002F0003F303070F0E07F637F636367E6C0995AF8
:100300003CE7E73C5A9980E0F8FEF8E08000020EF6
:100310003EFE3E0E0200183C7E18187E3C186666B3
:100320006666660066007FDBDB7B1B1B1B003F6095
:100330007C66663E06FC000000007E7E7E00183C67
:100340007E187E3C18FF183C7E18181818001818E4
:1003500018187E3C180000180CFE0C180000003025
:1003600060FE603000000000C0C0C0FE000000243D
:1003700066FF6624000000183C7EFFFF000000FFBF
:10038000FF7E3C180000000000000000000018186C
:100390001818180018006C6C6C00000000006C6CE1
:1003A000FE6CFE6C6C00187EC07C06FC180000C65B
:1003B000CC183066C600386C3876DCCC760030302D
:1003C0006000000000000C18303030180C003018AD
:1003D0000C0C0C18300000663CFF3C660000001856
:1003E000187E1818000000000000001818300000E7
:1003F000007E000000000000000000181800060C3D
:10040000183060C080007CCEDEF6E6C67C0018386E
:10041000181818187E007CC6067CC0C0FE00FC06BA
:10042000063C0606FC000CCCCCCCFE0C0C00FEC03E
:10043000FC0606C67C007CC0C0FCC6C67C00FE066E
:10044000060C183030007CC6C67CC6C67C007CC654
:10045000C67E06067C000018180000181800001858
:100460001800001818300C18306030180C0000000C
:100470007E007E00000030180C060C1830003C6630
:100480000C18180018007CC6DEDEDEC07E00386C5A
:10049000C6C6FEC6C600FCC6C6FCC6C6FC007CC6F8
:1004A000C0C0C0C67C00F8CCC6C6C6CCF800FEC032
:1004B000C0F8C0C0FE00FEC0C0F8C0C0C0007CC60E
:1004C000C0C0CEC67C00C6C6C6FEC6C6C6007E1864
:1004D000181818187E000606060606C67C00C6CC4C
:1004E000D8F0D8CCC600C0C0C0C0C0C0FE00C6EEA8
:1004F000FEFED6C6C600C6E6F6DECEC6C6007CC682
:10050000C6C6C6C67C00FCC6C6FCC0C0C0007CC651
:10051000C6C6D6DE7C06FCC6C6FCD8CCC6007CC6E9
:10052000C07C06C67C00FF18181818181800C6C62C
:10053000C6C6C6C6FE00C6C6C6C6C67C3800C6C687
:10054000C6C6D6FE6C00C6C66C386CC6C600C6C62B
:10055000C67C1830E000FE060C183060FE003C300F
:10056000303030303C00C06030180C0602003C0CCB
:100570000C0C0C0C3C0010386CC600000000000095
:100580000000000000FF18180C0000000000000030
:100590007C067EC67E00C0C0C0FCC6C6FC00000053
:1005A0007CC6C0C67C000606067EC6C67E0000006D
:1005B0007CC6FEC07C001C363078303078000000ED
:1005C0007EC6C67E06FCC0C0FCC6C6C6C6001800F5
:1005D000381818183C00060006060606C67CC0C07F
:1005E000CCD8F8CCC6003818181818183C000000F1
:1005F000CCFEFED6D6000000FCC6C6C6C600000073
:100600007CC6C6C67C000000FCC6C6FCC0C000009C
:100610007EC6C67E06060000FCC6C0C0C000000044
:100620007EC07C06FC0018187E1818180E0000000A
:10063000C6C6C6C67E000000C6C6C67C380000001E
:10064000C6C6D6FE6C000000C66C386CC600000042
:10065000C6C6C67E06FC0000FE0C3860FE000E1802
:10066000187018180E0018181800181818007018AC
:10067000180E1818700076DC000000000000001052
:10068000386CC6C6FE007CC6C0C0C0D67C30C60072
:10069000C6C6C6C67E000E007CC6FEC07C007E813B
:1006A0003C067EC67E0066007C067EC67E00E000BC
:1006B0007C067EC67E0018187C067EC67E00000082
:1006C0007CC6C0D67C307E817CC6FEC07C006600C5
:1006D0007CC6FEC07C00E0007CC6FEC07C006600DC
:1006E000381818183C007C82381818183C00700024
:1006F000381818183C00C6107CC6FEC6C60038382C
:10070000007CC6FEC6000E00FEC0F8C0FE00000061
:100710007F0C7FCC7F003F6CCCFFCCCCCF007C82A9
:100720007CC6C6C67C0066007CC6C6C67C00E000EF
:100730007CC6C6C67C007C8200C6C6C67E00E000C1
:10074000C6C6C6C67E0066006666663E067CC67C79
:10075000C6C6C6C67C00C600C6C6C6C6FE001818F9
:100760007ED8D8D87E18386C60F06066FC0066666B
:100770003C187E187E18F8CCCCFAC6CFC6C30E1B28
:10078000183C1818D8700E007C067EC67E001C002F
:10079000381818183C000E007CC6C6C67C000E0037
:1007A000C6C6C6C67E0000FE00FCC6C6C600FE0069
:1007B000C6E6F6DECE003C6C6C3E007E00003C6679
:1007C000663C007E00001800181830663C000000EF
:1007D00000FCC0C00000000000FC0C0C0000C6CCF7
:1007E000D83F63CF8C0FC3C6CCDB376DCF03180067
:1007F000181818181800003366CC6633000000CCB7
:10080000663366CC0000228822882288228855AA76
:1008100055AA55AA55AADD77DD77DD77DD7718185B
:1008200018181818181818181818F8181818181868
:10083000F818F818181836363636F63636360000F8
:100840000000FE3636360000F818F818181836364C
:10085000F606F63636363636363636363636000054
:10086000FE06F63636363636F606FE00000036361A
:100870003636FE0000001818F818F80000000000D6
:100880000000F8181818181818181F000000181879
:100890001818FF00000000000000FF1818181818B2
:1008A00018181F18181800000000FF000000181882
:1008B0001818FF18181818181F181F181818363687
:1008C000363637363636363637303F0000000000D1
:1008D0003F30373636363636F700FF00000000006E
:1008E000FF00F736363636363730373636360000C4
:1008F000FF00FF0000003636F700F73636361818CE
:10090000FF00FF00000036363636FF000000000012
:10091000FF00FF18181800000000FF363636363684
:1009200036363F00000018181F181F000000000096
:100930001F181F181818000000003F3636363636CC
:100940003636FF3636361818FF18FF1818181818DC
:100950001818F8000000000000001F181818FFFF0A
:10096000FFFFFFFFFFFF00000000FFFFFFFFF0F0B1
:10097000F0F0F0F0F0F00F0F0F0F0F0F0F0FFFFF61
:10098000FFFF00000000000076DCC8DC7600386C59
:100990006C786C666C6000FEC6C0C0C0C000000011
:1009A000FE6C6C6C6C00FE6030183060FE00000065
:1009B0007ED8D8D8700000666666667C60C0007617
:1009C000DC18181818007E183C66663C187E3C66D9
:1009D000C3FFC3663C003C66C3C36666E7000E18EF
:1009E0000C7EC6C67C0000007EDBDB7E0000060CB1
:1009F0007EDBDB7E60C03860C0F8C060380078CC39
:100A0000CCCCCCCCCC00007E007E007E0000181840
:100A10007E1818007E00603018306000FC0018302E
:100A200060301800FC000E1B1B1818181818181836
:100A3000181818D8D8701818007E001818000076FA
:100A4000DC0076DC0000386C6C3800000000000030
:100A500000181800000000000000180000000F0C33
:100A60000C0CEC6C3C1C786C6C6C6C0000007C0C0E
:100A70007C607C00000000003C3C3C3C000000101E
:100A800000000000000011241FBECFEFD8E0DEBF41
:100A9000CDBF11E0A0E0B1E0EEEEF0E202C00590C3
:100AA0000D92A230B107D9F715E0A2E0B1E001C084
:100AB0001D92AA3AB107E1F70E9436060C947F0D09
:100AC0000C940000DF92EF92FF920F931F93CF934D
:100AD000DF93F62EE22ED32EBA012FE22F1930E04B
:100AE00098E4899FE0011124D901AA0FBB1FA20F2E
:100AF000B31FB595A795AC0FBD1F20FDA5C0E09114
:100B00004403F0914503EA0FFB1FCB0192958295B8
:100B10008F7089279F70892780831196E091440305
:100B2000F0914503EA0FFB1F80818F70262F2295DD
:100B3000207F822B80836F2D61954E2D5D2D615E10
:100B4000862F90E06F519C01220F331F280F391F11
:100B5000359527952C0F3D1F80FD64C0E09144031F
:100B6000F0914503E20FF31FCA01929582958F70B1
:100B700089279F70892780832F5F3F4FE09144032F
:100B8000F0914503E20FF31F50815F707E2D729547
:100B9000707F572B5083A801615F862F90E09C01E6
:100BA000220F331F280F391F359527952C0F3D1F16
:100BB00080FD26C0E0914403F0914503E20FF31F4E
:100BC000C801929582958F7089279F7089278083AD
:100BD0002F5F3F4FC0914403D0914503C20FD31FF5
:100BE00008810F70142F1295107F012B0883F09A43
:100BF000DF91CF911F910F91FF90EF90DF900895BB
:100C0000E0914403F0914503E20FF31F6081607FA0
:100C1000612B6083C0914403D0914503C20FD31F61
:100C20000983E5CFE0914403F0914503E20FF31F00
:100C3000A081A07FAD29A083E0914403F0914503FA
:100C4000E20FF31FE182A7CFE0914403F091450347
:100C5000EA0FFB1F3081307F352B3083E091440356
:100C6000F0914503EA0FFB1F618365CF0F931F933C
:100C70000E94A2078FE30E9410070E946A070E9449
:100C80007C07789480E090E060E070E040E058E01D
:100C900020E030E000E010E00E94620580E090E09B
:100CA00061E070E040E050E020E038E00E94620542
:100CB00080E090E062E070E040E050E020E030E072
:100CC00000E018E00E94620582E090E06CE070E0D5
:100CD0004AEF5FE020E030E000E010E00E946205B3
:100CE00083E090E06CE070E040E050E02AEF3FE00D
:100CF0000E94620584E090E06CE070E040E050E02B
:100D000020E030E00AEF1FE00E94620584E090E0FE
:100D10006FE070E04AEF5FE02AEF3FE000E010E0B4
:100D20000E94620585E090E06FE070E040E050E0F6
:100D30002AEF3FE00AEF1FE00E94620586E090E0A4
:100D40006FE070E04AEF5FE020E030E00E94620573
:100D500087E090E06FE070E04AEF5FE02AEF3FE06D
:100D60000E9462058EB38EB3FDCF2FE2281B30E0C8
:100D7000C901880F991F820F931F959587959595A7
:100D80008795482F237030702130310591F1223042
:100D90003105B1F0232B59F4E82FF0E0EA5BFC4F6A
:100DA00080818370660F660F862B80830895E82FFD
:100DB000F0E0EA5BFC4FA081A07CA62BA083089505
:100DC000E82FF0E0EA5BFC4F5081507F762F76955C
:100DD0007695572B50834F5FE42FF0E0EA5BFC4F92
:100DE00040814F736295660F660F607C462B40838F
:100DF0000895E82FF0E0EA5BFC4F30813C7F962FAE
:100E000092959F70392B30834F5FE42FF0E0EA5BBF
:100E1000FC4F20812F706295607F262B20830895E0
:100E2000482F440F440F942F990F990F382F329564
:100E30003F70342B282F26952695292B990F990F33
:100E4000982B3093460320934703909348033093A5
:100E5000490320934A0390934B0330934C03209310
:100E60004D0390934E0330934F0320935003909380
:100E700051033093520320935303909354033093C0
:100E800055032093560390935703309358032093B0
:100E9000590390935A0330935B0320935C03909320
:100EA0005D0330935E0320935F0390936003309360
:100EB0006103209362039093630330936403209350
:100EC00065039093660330936703209368039093C0
:100ED000690308952B9A2A9AE6E4F3E08091C00012
:100EE00085FFFCCF21912093C60083E0EA36F80706
:100EF000A9F75D9A5D9808952A9921C090E05E98BF
:100F0000409144035091450328EF31E08091C000A7
:100F100085FFFCCFFA01E20FF31F60816093C600EA
:100F200082E02F33380719F02F5F3F4FEFCF5E9AE3
:100F30005D9A5D98992311F05C9A5C9808952A98BF
:100F400091E0DDCFE4ECF0E011821082549A239A14
:100F5000229A559A569A519A249A259A2D982C9A03
:100F60002C982C9A2C982C9A2C982C9A2C982C9A59
:100F70002C982C9A2C982C9A2C982C9A2C985C981B
:100F80002B982A9A5D985E9AF098F198A4E0B1E0C7
:100F9000B0934503A093440360EC6093C20058E013
:100FA0005093C1001182108242E044BD34E035BD4F
:100FB0002FE027BDEEE6F0E0808182608083089517
:100FC0001F920F920FB60F9211242F933F938F937E
:100FD0009F93EF93FF935E9AF19B12C05D9A5D9889
:100FE000F19880910301882309F43FC02D982C9A31
:100FF0002C988F5F80930301883011F410920301C5
:101000005E9820910001309101019091030188E4E4
:10101000989FF0011124E20FF31F98E48091C00023
:1010200085FFFCCF81918093C6009150B9F7F09B6A
:1010300017C0809102018823F9F08F5F809302012D
:10104000883011F410920201F19AFF91EF919F9173
:101050008F913F912F910F900FBE0F901F90189579
:1010600080910201882381F3E8CF2D9A2C9A2C9845
:1010700081E080930301C4CFE0914403F0914503E4
:10108000F0930101E0930001309345032093440362
:10109000F098209102012F5F209302012830A1F6E1
:1010A000D1CF2F923F924F925F926F927F928F9209
:1010B0009F92AF92BF92CF92DF92EF92FF920F93E7
:1010C0001F933B014C0119012A01C801B701A4017A
:1010D00093010E94820D3B014C01C601B501A201A2
:1010E00091010E94820D5B016C01C401B301A40156
:1010F00093010E94090F7B018C01C601B501A60175
:1011000095010E94090F9B01AC01C801B7010E9423
:10111000830D0E94760F9B01AC01CA01B9011F919A
:101120000F91FF90EF90DF90CF90BF90AF909F9086
:101130008F907F906F905F904F903F902F90089589
:101140002F926F927F928F929F92AF92BF92CF9287
:10115000DF92EF92FF920F931F93DF93CF93CDB760
:10116000DEB7AB970FB6F894DEBF0FBECDBF86EFEC
:1011700097E0A0E0B0E089A39AA3ABA3BCA3F09949
:10118000FECF69A17AA18BA19CA127E030E040E0CD
:1011900050E00E94381029A7C901DA01898B9A8B87
:1011A000AB8BBC8B1BA61AA6698929A4621970E0B7
:1011B00080E090E00E947B0E3B014C0160E070E01B
:1011C00080E093E4A40193010E94820D9B01AC0195
:1011D0000E94090F6D877E878F87988B60E070E093
:1011E00080E892E4A40193010E94820D9B01AC016E
:1011F0000E94090F69877A878B879C8769897A891A
:101200008B899C890E947D0E9B01AC0160E070E09F
:1012100080E892E40E94820D9B01AC010E94090FBC
:101220006D837E838F83988760E070E088EC92E422
:10123000A40193010E94820D9B01AC010E94090F41
:1012400069837A838B839C8389A09AA0ABA0BCA07E
:101250008D8E9E8EAF8EB8A28FE0282EADE8B0E0C6
:10126000BC8FAB8F6FE270E07A8F698F4DE550E0F5
:10127000588F4F8B2FE130E03E8B2D8BA9C040E083
:1012800054E0461B570B822D90E09C01220F331F28
:10129000280F391F35952795EAA5FBA52E0F3F1F6F
:1012A00020FCC1C1E0914403F0914503E20FF31F1C
:1012B000CA01929582958F7089279F7089278083B4
:1012C0002F5F3F4FE0914403F0914503E20FF31F7E
:1012D00000810F70142F1295107F012B00832F892E
:1012E000388D359527958AA49BA4280D391D7D88B6
:1012F00070FC87C1E0914403F0914503E20FF31FB6
:10130000CB01929582958F7089279F708927808362
:101310002F5F3F4FE0914403F0914503E20FF31F2D
:1013200020812F70362F3295307F232B208380E051
:1013300090E1861B970BBC012B8D3C8D3595279535
:10134000CAA4DBA42C0D3D1DF98DF0FD48C1E09130
:101350004403F0914503E20FF31FCB019295829570
:101360008F7089279F70892780832F5F3F4FE0917F
:101370004403F0914503E20FF31F70817F70262F25
:101380002295207F722B70832A948D8D9E8DAF8D38
:10139000B8A10196A11DB11D8D8F9E8FAF8FB8A3EF
:1013A0008B8D9C8D03979C8F8B8FE98DFA8D319758
:1013B000FA8FE98FAF89B88D1397B88FAF8B8D896E
:1013C0009E8901979E8B8D8B6FEF261609F461C164
:1013D0006D8D7E8D8F8D98A10E947D0E9B01AC013D
:1013E00060E070E080E093E40E94820D9B01AC011C
:1013F0000E94090F2D853E854F8558890E94830DD7
:101400000E94760F20E030E040E05EE30E94090F8A
:101410000E946C0F6DA37EA38FA398A76D8D99A1D9
:10142000691B70E080E090E00E947B0E5B016C0124
:1014300060E070E080E892E4A60195010E94820DD0
:101440009B01AC010E94090F29853A854B855C857B
:101450000E94830D0E94760F20E030E040E05EE3C2
:101460000E94090F0E946C0F3B014C0160E070E08C
:1014700080E493E4A60195010E94820D9B01AC01DA
:101480000E94090F7B018C012D813E814F8158857F
:101490000E94830D0E94760F20E030E040EE50E481
:1014A0000E94E70D0E946C0F5B016C01C801B7013F
:1014B00029813A814B815C810E94830D0E94760FC5
:1014C00020E030E040E05EE30E94090F0E946C0FD4
:1014D0007B018C016DA17EA18FA198A5A401930130
:1014E0000E94830DA60195010E94830DA80197011A
:1014F0000E94830D20E030E040E855E40E94090F8F
:101500000E944F0E7F70A8E060307A0708F0B7CED7
:1015100040E050E1461B570B822D90E09C01220FCA
:10152000331F280F391F359527956AA47BA4260DF4
:10153000371D20FC9CC0E0914403F0914503E20F6D
:10154000F31FCA01929582958F7089279F70892712
:1015500080832F5F3F4FE0914403F0914503E20FFA
:10156000F31F50815F70B42FB295B07F5B2B508317
:101570004FEF57E0461B570B2F89388D3595279530
:10158000EAA4FBA42E0D3F1D9D8890FC5EC0E09157
:101590004403F0914503E20FF31FCA01929582952F
:1015A0008F7089279F70892780832F5F3F4FE0913D
:1015B0004403F0914503E20FF31F00810F70142FD5
:1015C0001295107F012B00832B8D3C8D359527952F
:1015D000AAA4BBA42A0D3B1DB98CB0FEB8CEE091E5
:1015E0004403F0914503E20FF31F4081407F472BF6
:1015F0004083E0914403F0914503E20FF31F6183C0
:10160000C3CEE0914403F0914503E20FF31F408104
:10161000407F472B4083E0914403F0914503E20F64
:10162000F31F618384CEE0914403F0914503E20F00
:10163000F31FA081A07FA52BA083E0914403F0912C
:101640004503E20FF31F41834ACEE0914403F0913A
:101650004503E20FF31FA081A07FA52BA083E0919B
:101660004403F0914503E20FF31F4183ADCFE091B6
:101670004403F0914503E20FF31F9081907F952B77
:101680009083E0914403F0914503E20FF31F4183FF
:101690006FCF89899A89AB89BC890196A11DB11D3B
:1016A000898B9A8BAB8BBC8B0AA51BA5085B1F4F44
:1016B0001BA70AA7E2E000341E0709F075CD89A137
:1016C0009AA1ABA1BCA10196A11DB11D89A39AA3AA
:1016D000ABA3BCA3F09A53CD08952F923F924F92A3
:1016E0005F926F927F928F929F92AF92BF92CF92B2
:1016F000DF92EF92FF920F931F93DF93CF93CDB7BB
:10170000DEB729970FB6F894DEBF0FBECDBF9F831B
:101710008E83DC018C91882381F090E09F5F292FDC
:1017200030E0EE81FF81E20FF31F20802220B1F72D
:10173000C90101979C838B8304C04FEF5FEF5C83EB
:101740004B8366241D824424552477247A9480E9AF
:10175000C82E81E0D82E03C06624442455248B80F3
:101760009C8048145904C4F7F099FECFEE81FF81A4
:10177000E40DF51D9080892C99243180A32CBB2485
:10178000FD812F2E332408E010E0021913091A837B
:101790000983880C991C880C991C880C991C26E8D4
:1017A00032E0820E931EAA0CBB1CAA0CBB1CAA0C16
:1017B000BB1CA20EB31E40E050E0F4012491F501E1
:1017C000849190E0098002C0959587950A94E2F78C
:1017D00030E0022C02C0220F331F0A94E2F7E82EF9
:1017E000E22AFFE0FF2E0DE510E06FE170E079875F
:1017F0006887ADE8B0E06FE270E055C0E091440367
:10180000F0914503E20FF31F10822F5F3F4FE091ED
:101810004403F0914503E20FF31F20812F702083D2
:101820009D0135952795240F351F60FD62C0E0911D
:101830004403F0914503E20FF31F10822F5F3F4FE7
:10184000E0914403F0914503E20FF31F30813F70B4
:101850003083980135952795240F351FF885F0FDC5
:1018600060C0E0914403F0914503E20FF31F108242
:101870002F5F3F4FE0914403F0914503E20FF31FC8
:1018800020812F702083FA94035010408885998519
:101890000197998788871397615070403FEFF3163F
:1018A00009F4E3C0EE0CE7FC4DC08F2D90E09C01E5
:1018B000220F331F280F391F35952795240F351F09
:1018C000F0FE9CCFE0914403F0914503E20FF31F3B
:1018D0009081907F9083E0914403F0914503E20F63
:1018E000F31F11829D0135952795240F351F60FF49
:1018F0009ECFE0914403F0914503E20FF31F8081F6
:10190000807F8083E0914403F0914503E20FF31F51
:101910001182980135952795240F351FF885F0FF22
:10192000A0CFE0914403F0914503E20FF31F9081B3
:10193000907F9083E0914403F0914503E20FF31F01
:101940001182A1CF8F2D90E09C01220F331F280F11
:10195000391F35952795240F351FF0FC46C0E091BF
:101960004403F0914503E20FF31F70822F5F3F4F56
:10197000E0914403F0914503E20FF31F3081306F93
:101980003083980135952795240F351F888580FD74
:1019900044C0E0914403F0914503E20FF31F10822D
:1019A0002F5F3F4FE0914403F0914503E20FF31F97
:1019B00020812F7020839D0135952795240F351F99
:1019C00060FD42C0E0914403F0914503E20FF31F34
:1019D00070822F5F3F4FE0914403F0914503E20F87
:1019E000F31F3081306F30834ECFE0914403F0918C
:1019F0004503E20FF31F90819F609083E0914403C1
:101A0000F0914503E20FF31F7182980135952795F8
:101A1000240F351F888580FFBCCFE0914403F091EF
:101A20004503E20FF31F9081907F9083E091440380
:101A3000F0914503E20FF31F11829D013595279523
:101A4000240F351F60FFBECFE0914403F0914503A2
:101A5000E20FF31F80818F608083E0914403F09157
:101A60004503E20FF31F71820ECF0894811C911C75
:101A70000894A11CB11C485B5F4FA2E040345A0798
:101A800009F09BCEBD81BF5FBD83B73020F063946A
:101A90001D82462C5524F09AD6011197F1F721E0CA
:101AA00030E0C6010197F1F72F5F3F4FF601319704
:101AB000F1F72F5F3F4FD6011197F1F72F5F3F4F9F
:101AC000C6010197F1F7F6013197F1F7D6011197A9
:101AD000F1F7C6010197F1F7F6013197F1F7D60159
:101AE0001197F1F7C6010197F1F7F6013197F1F778
:101AF000285F3F4FE1E0243F3E0711F730CEF894D6
:101B00000C9475105058BB27AA270ED048C139D164
:101B100030F03ED120F031F49F3F11F41EF42EC17D
:101B20000EF4E095E7FB24C1E92F4AD180F3BA1700
:101B3000620773078407950718F071F49EF562C178
:101B40000EF4E0950B2EBA2FA02D0B01B9019001D8
:101B50000C01CA01A0011124FF27591B99F0593F1C
:101B600050F4503E68F11A16F040A22F232F342F64
:101B70004427585FF3CF469537952795A795F040B2
:101B80005395C9F77EF41F16BA0B620B730B840BC7
:101B9000BAF09150A1F0FF0FBB1F661F771F881F7F
:101BA000C2F70EC0BA0F621F731F841F48F48795D7
:101BB00077956795B795F7959E3F08F0B3CF9395C6
:101BC000880F08F09927EE0F9795879508950CD008
:101BD000E6C0DED040F0D5D030F021F45F3F19F000
:101BE000C7C0511110C1CAC0EBD098F39923C9F3F3
:101BF0005523B1F3951B550BBB27AA276217730713
:101C0000840738F09F5F5F4F220F331F441FAA1FC6
:101C1000A9F333D00E2E3AF0E0E830D09150504086
:101C2000E695001CCAF729D0FE2F27D0660F771F34
:101C3000881FBB1F261737074807AB07B0E809F016
:101C4000BB0B802DBF01FF2793585F4F2AF09E3FAB
:101C5000510568F08DC0D7C05F3FECF3983EDCF3D0
:101C6000869577956795B795F7959F5FC9F7880F24
:101C7000911D9695879597F90895E1E0660F771F76
:101C8000881FBB1F621773078407BA0720F0621B07
:101C9000730B840BBA0BEE1F88F7E095089598D06C
:101CA00088F09F5790F0B92F9927B751A0F0D1F045
:101CB000660F771F881F991F1AF0BA95C9F712C0CF
:101CC000B13081F09FD0B1E008959CC0672F782F8C
:101CD0008827B85F39F0B93FCCF38695779567953B
:101CE000B395D9F73EF490958095709561957F4FA7
:101CF0008F4F9F4F0895E89409C097FB3EF490954D
:101D00008095709561957F4F8F4F9F4F9923A9F0D4
:101D1000F92F96E9BB279395F69587957795679563
:101D2000B795F111F8CFFAF4BB0F11F460FF1BC0A7
:101D30006F5F7F4F8F4F9F4F16C0882311F096E93A
:101D400011C0772321F09EE8872F762F05C06623E8
:101D500071F096E8862F70E060E02AF09A95660FA1
:101D6000771F881FDAF7880F9695879597F908955A
:101D700097F99F6780E870E060E008959FEF80EC3E
:101D8000089500240A9416161706180609060895E1
:101D900000240A9412161306140605060895092E47
:101DA0000394000C11F4882352F0BB0F40F4BF2BB6
:101DB00011F460FF04C06F5F7F4F8F4F9F4F0895F6
:101DC00057FD9058440F551F59F05F3F71F04795EC
:101DD000880F97FB991F61F09F3F79F087950895D1
:101DE000121613061406551FF2CF4695F1DF08C0F0
:101DF000161617061806991FF1CF8695710561050D
:101E000008940895E894BB2766277727CB0197F9B4
:101E100008950BD0C4CFB5DF28F0BADF18F09523B2
:101E200009F0A6CFABCF1124EECFCADFA0F3959F68
:101E3000D1F3950F50E0551F629FF001729FBB27B1
:101E4000F00DB11D639FAA27F00DB11DAA1F649F5D
:101E50006627B00DA11D661F829F2227B00DA11D10
:101E6000621F739FB00DA11D621F839FA00D611D96
:101E7000221F749F3327A00D611D231F849F600DB7
:101E8000211D822F762F6A2F11249F5750408AF0F0
:101E9000E1F088234AF0EE0FFF1FBB1F661F771F7C
:101EA000881F91505040A9F79E3F510570F060CFB8
:101EB000AACF5F3FECF3983EDCF386957795679564
:101EC000B795F795E7959F5FC1F7FE2B880F911D9A
:101ED0009695879597F908959F935CD00F9007FC8E
:101EE000EE5F7FC011F40EF449CF3EC071DFD0F336
:101EF0009923D9F3CEF39F57550B87FF43D0002486
:101F0000A0E640EA900180585695979528F4805CA9
:101F1000660F771F881F20F026173707480730F411
:101F2000621B730B840B202931294A2BA695179429
:101F30000794202531254A2758F7660F771F881FF9
:101F400020F026173707480730F4620B730B840B19
:101F5000200D311D411DA09581F7B901842F9158A5
:101F6000880F9695879508959F3F31F0915020F402
:101F7000879577956795B795880F911D9695879565
:101F800097F9089591505040660F771F881FD2F738
:101F90000895F4CE1DDFE8F3E894E0E0BB279F57F7
:101FA000F0F02AED3FE049EC06C0EE0FBB0F661FD4
:101FB000771F881F28F0B23A62077307840728F05A
:101FC000B25A620B730B840BE3959A9572F78038C3
:101FD00030F49A95BB0F661F771F881FD2F7904881
:101FE000C5CFEF93E0FF06C0A2EA2AED3FE049EC3F
:101FF0005FEB9ADDD4DE0F90039401FC9058E8E685
:10200000F0E000C09F938F937F936F93FF93EF93C4
:102010009B01AC01FEDEEF91FF9105D02F913F9126
:102020004F915F91F6CEDF93CF931F930F93FF9263
:10203000EF92DF927B018C01689405C0DA2EEF01EC
:10204000F4DEFE01E894A5912591359145915591D5
:10205000AEF3EF0169DDFE019701A801DA9479F78B
:10206000DF90EF90FF900F911F91CF91DF91089536
:1020700097FB092E05260ED057FD04D014D00AD0A8
:10208000001C38F450954095309521953F4F4F4FA7
:102090005F4F0895F6F790958095709561957F4F05
:1020A0008F4F9F4F0895A1E21A2EAA1BBB1BFD0163
:1020B0000DC0AA1FBB1FEE1FFF1FA217B307E40727
:1020C000F50720F0A21BB30BE40BF50B661F771F7F
:1020D000881F991F1A9469F760957095809590955F
:0E20E0009B01AC01BD01CF010895F894FFCF24
:0220EE006A0383
:00000001FF
